{"abi":[{"type":"constructor","inputs":[],"stateMutability":"nonpayable"},{"type":"function","name":"agents","inputs":[{"name":"","type":"string","internalType":"string"}],"outputs":[{"name":"","type":"address","internalType":"address"}],"stateMutability":"view"},{"type":"function","name":"buy","inputs":[{"name":"_muuid","type":"string","internalType":"string"},{"name":"_auuid","type":"string","internalType":"string"}],"outputs":[],"stateMutability":"nonpayable"},{"type":"function","name":"getAgent","inputs":[{"name":"_uuid","type":"string","internalType":"string"}],"outputs":[{"name":"","type":"address","internalType":"address"}],"stateMutability":"view"},{"type":"function","name":"getPermission","inputs":[{"name":"_muuid","type":"string","internalType":"string"},{"name":"_auuid","type":"string","internalType":"string"}],"outputs":[{"name":"","type":"bool","internalType":"bool"}],"stateMutability":"view"},{"type":"function","name":"register","inputs":[{"name":"_uuid","type":"string","internalType":"string"}],"outputs":[],"stateMutability":"nonpayable"},{"type":"function","name":"version","inputs":[],"outputs":[{"name":"","type":"string","internalType":"string"}],"stateMutability":"view"}],"bytecode":{"object":"0x60c060405260056080908152640302e312e360dc1b60a0525f9061002390826100cd565b5034801561002f575f5ffd5b50610187565b634e487b7160e01b5f52604160045260245ffd5b600181811c9082168061005d57607f821691505b60208210810361007b57634e487b7160e01b5f52602260045260245ffd5b50919050565b601f8211156100c857805f5260205f20601f840160051c810160208510156100a65750805b601f840160051c820191505b818110156100c5575f81556001016100b2565b50505b505050565b81516001600160401b038111156100e6576100e6610035565b6100fa816100f48454610049565b84610081565b6020601f82116001811461012c575f83156101155750848201515b5f19600385901b1c1916600184901b1784556100c5565b5f84815260208120601f198516915b8281101561015b578785015182556020948501946001909201910161013b565b508482101561017857868401515f19600387901b60f8161c191681555b50505050600190811b01905550565b610605806101945f395ff3fe608060405234801561000f575f5ffd5b5060043610610060575f3560e01c806354fd4d501461006457806368ba8e1e14610082578063794464e9146100a5578063c63e529b146100d0578063cf6ee0cb146100e5578063f2c298be14610119575b5f5ffd5b61006c61012c565b604051610079919061040e565b60405180910390f35b6100956100903660046104e2565b6101b7565b6040519015158152602001610079565b6100b86100b3366004610547565b6101ff565b6040516001600160a01b039091168152602001610079565b6100e36100de3660046104e2565b61022f565b005b6100b86100f3366004610547565b80516020818301810180516001825292820191909301209152546001600160a01b031681565b6100e3610127366004610547565b610362565b5f805461013890610581565b80601f016020809104026020016040519081016040528092919081815260200182805461016490610581565b80156101af5780601f10610186576101008083540402835291602001916101af565b820191905f5260205f20905b81548152906001019060200180831161019257829003601f168201915b505050505081565b5f6002836040516101c891906105b9565b9081526020016040518091039020826040516101e491906105b9565b9081526040519081900360200190205460ff16905092915050565b5f60018260405161021091906105b9565b908152604051908190036020019020546001600160a01b031692915050565b5f6001600160a01b031660018360405161024991906105b9565b908152604051908190036020019020546001600160a01b03160361029f5760405162461bcd60e51b81526020600482015260086024820152671b9bc81859d95b9d60c21b60448201526064015b60405180910390fd5b336001600160a01b03166001826040516102b991906105b9565b908152604051908190036020019020546001600160a01b0316146103105760405162461bcd60e51b815260206004820152600e60248201526d34b63632b3b0b61031b0b63632b960911b6044820152606401610296565b600160028360405161032291906105b9565b90815260200160405180910390208260405161033e91906105b9565b908152604051908190036020019020805491151560ff199092169190911790555050565b5f6001600160a01b031660018260405161037c91906105b9565b908152604051908190036020019020546001600160a01b0316146103cb5760405162461bcd60e51b815260206004820152600660248201526565786973747360d01b6044820152606401610296565b336001826040516103dc91906105b9565b90815260405190819003602001902080546001600160a01b03929092166001600160a01b031990921691909117905550565b602081525f82518060208401528060208501604085015e5f604082850101526040601f19601f83011684010191505092915050565b634e487b7160e01b5f52604160045260245ffd5b5f82601f830112610466575f5ffd5b813567ffffffffffffffff81111561048057610480610443565b604051601f8201601f19908116603f0116810167ffffffffffffffff811182821017156104af576104af610443565b6040528181528382016020018510156104c6575f5ffd5b816020850160208301375f918101602001919091529392505050565b5f5f604083850312156104f3575f5ffd5b823567ffffffffffffffff811115610509575f5ffd5b61051585828601610457565b925050602083013567ffffffffffffffff811115610531575f5ffd5b61053d85828601610457565b9150509250929050565b5f60208284031215610557575f5ffd5b813567ffffffffffffffff81111561056d575f5ffd5b61057984828501610457565b949350505050565b600181811c9082168061059557607f821691505b6020821081036105b357634e487b7160e01b5f52602260045260245ffd5b50919050565b5f82518060208501845e5f92019182525091905056fea26469706673582212209606017397ffe58bdf85b820b6d02b1112d17cde8f00a2b8b077209a4458b00d64736f6c634300081c0033","linkReferences":{}},"methodIdentifiers":{"agents(string)":"cf6ee0cb","buy(string,string)":"c63e529b","getAgent(string)":"794464e9","getPermission(string,string)":"68ba8e1e","register(string)":"f2c298be","version()":"54fd4d50"},"id":20}